:020000040800F2
:10000000F8060020C1010008B3170008CB1500084E
:10001000B1170008CD020008151B00080000000001
:10002000000000000000000000000000E3180008CD
:10003000CD03000800000000E1180008E5180008E2
:10004000DB010008DB010008DB010008DB01000820
:10005000DB010008DB010008DB010008DB01000810
:10006000DB010008DB010008DB010008DB01000800
:10007000DB010008DB010008DB010008DB010008F0
:10008000DB010008DB010008DB0100087903000840
:100090006D030008DB010008DB010008DB0100083C
:1000A000DB010008DB010008DB010008DB010008C0
:1000B000DB010008DB010008DB010008DB010008B0
:1000C000DB010008DB010008DB010008DB010008A0
:1000D000DB010008DB010008DB010008DB01000890
:1000E000DB010008DB010008DB010008DB01000880
:1000F000DB010008DB010008DB010008DB01000870
:10010000DB010008DB010008DB010008DB0100085F
:10011000DB010008DB010008DB010008DB0100084F
:10012000DB010008DB010008DB010008DB0100083F
:10013000DB010008DB010008DB010008DB0100082F
:10014000DB010008DB010008DB010008DB0100081F
:10015000DB010008DB010008DB010008DB0100080F
:10016000DB010008DB010008DB010008DB010008FF
:10017000DB010008DB010008DB01000800000000D3
:10018000DB010008DB010008DB010008DB010008DF
:10019000DB010008DB010008DB010008DB010008CF
:1001A0000000000000000000DB010008DFF80CD0B8
:1001B00000F07AF800480047991B0008F806002074
:1001C0000648804706480047FEE7FEE7FEE7FEE7F1
:1001D000FEE7FEE7FEE7FEE7FEE7FEE76D19000833
:1001E000AD0100082DE9F05F0546002092469B46D0
:1001F00088460646814640241BE02846414647463D
:10020000224600F041F853465A46C01A914110D395
:1002100011461846224600F028F82D1A67EB01080F
:100220004F4622460120002100F01FF817EB00097D
:100230004E41201EA4F10104DFDC484631462A4627
:100240004346BDE8F09FD2B201E000F8012B491E01
:10025000FBD270470022F6E710B513460A46044663
:100260001946FFF7F0FF204610BD202A04DB203A94
:1002700000FA02F1002070479140C2F1200320FAF9
:1002800003F3194390407047202A04DB203A21FAF7
:1002900002F00021704721FA02F3D040C2F120029F
:1002A0009140084319467047064C074D06E0E06848
:1002B00040F0010394E8070098471034AC42F6D3AD
:1002C000FFF778FF381D0008581D0008FEE7000002
:1002D0000068B0F5017F08D012DCA0F50072013A89
:1002E00003D0012A01D0022A1CD10F4A401EC0B2FD
:1002F00010700E4A00EB800002EB400001F034BCAD
:10030000A0F5007005380AD0012805D00C2809D1C5
:100310000548203001F036BC04481E38EEE703489B
:100320001438EBE770470000000000208600002032
:1003300000B58BB000200121CDE9060103900891A2
:10034000049000900E210190029009910590694659
:10035000054800F0B3F80221034800F039F80248DC
:1003600000F0C4FB0BB000BD28020020014800F0E3
:10037000A0B9000028020020014800F09AB900004E
:100380002802002030B40E4C4FF400752560002583
:10039000A560E560082525610A4C050A2570607096
:1003A000080AA070E170100A20716271180AA07129
:1003B000E371231F30BC1A1D0149034800F01AB82D
:1003C000E00000200800002028020020704770474D
:1003D00090F82020012A07D0022A05D0416A41F472
:1003E0008021416201207047006842690A434261EE
:1003F00000207047F0B590F820500468A468012DE3
:1004000005D0022D03D0416A41F4802153E014F05D
:10041000406F01D1E5004BD5C4F30164022C03D930
:10042000416A41F4000146E00125A5401D608D6848
:100430004FF4C0739DB1CE6835434E6845EAC6059A
:10044000066803EB0417F5514FF4C275076805EB16
:1004500004150E697E51097D012905D009E00E8839
:10046000CD6845EA4655EBE701684E5946F480767B
:100470004E511179D2F805504FF4C67641EA052560
:10048000016806EB04168D511178D2F801204FF463
:10049000C47541EA0221026805EB04155151006858
:1004A00003EB0411425842F0010242500020F0BD1B
:1004B000416A41F4001141620120F0BD10B590F88D
:1004C0002020012A07D0022A05D0416A41F4802168
:1004D0004162012010BD3B48D0F8002242F00102E9
:1004E000C0F80022D0F8002222F47C52C0F800228A
:1004F000D0F800224B6A42EA0322C0F800220A7DAB
:1005000002F01F0301229A40D0F81C329343C0F836
:100510001C32CB69B3B9D0F80C329343C0F80C321B
:100520008C894B6864F31F434C6900EBC404C4F826
:1005300040320C890B6864F31F434C6900EBC40420
:10054000C4F84432CB69012B16D1D0F80C321343D6
:10055000C0F80C320C884B6864F31F434C6900EB05
:10056000C404C4F840320C89CB6864F31F434C695F
:1005700000EBC404C4F844328B69002BD0F8043279
:100580000ED01343C0F804320B69002BD0F814329C
:1005900008D01343C0F81432096A012904D008E0D6
:1005A0009343EFE79343F5E7D0F81C121143C0F8EB
:1005B0001C12D0F8001221F00101C0F80012002036
:1005C00010BD000000640040704730B590F8204036
:1005D000012C05D0022C03D0416A41F480215DE05A
:1005E0000468002955D02469A40754D04FF4D87466
:1005F000056804EB01142D5915F004059560056894
:100600002D594ED0ED08556005682C5904F00204B0
:10061000D4604FF4DA74056804EB01142D5905F029
:100620000F05156105682D59C5F307259561056806
:100630002C59240C54614FF4DC72046802EB011253
:10064000A4581C700468A458240A5C700468A45858
:10065000240C9C700468A258120EDA704FF4DE72FB
:10066000046802EB0112A4581C710468A458240AFF
:100670005C710468A458240C9C710468A258120E82
:10068000DA71006881B1016941F020010161002047
:1006900030BDE468A8E7416A41F4001141620120DD
:1006A00030BD6D0D1560AFE7C16841F02001C1603C
:1006B000EDE72DE9F05F0546006800244669D0F8B3
:1006C00004908768D0F80CB0D0F810A0D0F818804B
:1006D000F10748D0F90714D001218160B80703D58C
:1006E000284600F030FA0CE0780702D54FF4006499
:1006F00007E0380702D54FF4805402E0284600F0A6
:1007000021FAF80516D529684FF480708860B8057D
:1007100003D5284600F019FA0CE0780502D544F418
:10072000005407E0380502D544F4804402E028462E
:1007300000F00AFAF80316D529684FF48030886073
:10074000B80303D5284600F002FA0CE0780302D57E
:1007500044F4004407E0380302D544F4803402E056
:10076000284600F0F3F9300707D55FEACB6004D5DF
:100770002968102044F40074C86070074FF008071F
:1007800007D55FEA0B7004D52868C760284600F0DB
:100790009BF9B00706D52868C068800702D02846B4
:1007A00000F093F9700607D55FEACA6004D529689E
:1007B000102044F480640861B00607D55FEA0A702F
:1007C00004D528680761284600F08CF9F00606D5A4
:1007D00028680069800702D0284600F084F9B00339
:1007E00008D55FEAC96005D5296810204860284609
:1007F00000F07AF9F00307D55FEA097004D528689C
:100800004760284600F0A4F9300446D55FEA4970F5
:1008100040D5F00504D55FEAC87001D044F001046A
:10082000B00504D55FEA887001D544F00204700574
:1008300004D55FEA487001D544F00404300529D599
:1008400018F0700F26D008F07000402815D006DC94
:10085000102809D020280AD0302816D10AE05028C4
:100860000ED0602811D10EE044F008040DE044F0F1
:1008700010040AE044F0200407E044F0400404E0DF
:1008800044F0800401E044F480742868816921F018
:1008900070018161296804204860002C05D0686AD5
:1008A000204368622846FFF78FFEBDE8F09F70B5D1
:1008B000040003D094F8200010B104E0012070BDC2
:1008C000204600F081F82068016821F002010160F3
:1008D00000F046FA0546052604E000F041FA401B08
:1008E0000A2811D8206840688007F6D4206801687B
:1008F00041F00101016000F033FA05460BE000F021
:100900002FFA401B0A2806D9606A40F40030606262
:1009100084F82060D2E720684068C007EFD0207ECE
:100920000128206801683DD021F080010160607ECF
:1009300001282068016838D021F040010160A07EC4
:1009400001282068016833D021F020010160E07E99
:100950000128206801682ED041F010010160207F3D
:1009600001282068016829D021F008010160607F1A
:1009700001282068016824D021F004010160D4E935
:1009800002010843D4E90412114308436168491E77
:1009900008432168C86100206062012084F82000BB
:1009A000002070BD41F08001C0E741F04001C5E783
:1009B00041F02001CAE721F01001CFE741F0080122
:1009C000D4E741F00401D9E7F0B587B0044614211B
:1009D0006846FFF73FFC374B3748DFF8D4E019682B
:1009E000D4F800C0344A0325022609271030002419
:1009F000491CF4452DD11960012907D1016841F046
:100A000000710160006800F000700590106840F00F
:100A1000080010601068CDE9005600F00800CDE92C
:100A2000047069462548CDE9024500F0A5F800228A
:100A30001146132000F002FA132000F0F1F9002211
:100A40001146142000F0FAF9142000F0E9F907B07B
:100A5000F0BDDFF86CE0F445F9D1D0F800C04CF0FF
:100A6000806CC0F800C0D0F800C001290CF0806C88
:100A7000CDF814C0196007D1016841F00071016020
:100A8000006800F000700590106840F002001060EF
:100A9000106802AB00F0020005906020CDE900066E
:100AA00083E8B0006946074800F066F8CFE7000029
:100AB000006400405400002030380240000C024026
:100AC0000068004000040240704700B589B007ABE1
:100AD0006A460021FFF779FD07A96846FFF7F8FB92
:100AE00009B000BD704770477047000070B50446FC
:100AF00090F82000012804D0606A40F40020606271
:100B000018E0022084F820002068016821F001012B
:100B1000016000F025F905460EE000BF00F020F965
:100B2000401B0A2808D9606A40F400306062052042
:100B300084F82000012070BD20684068C007EDD116
:100B4000606270BD7047704770477047704770476C
:100B50007047000070B5044600F002F90546601CBD
:100B600002D004480078044400F0FAF8401BA04288
:100B7000FAD370BD580000202DE9F84F00224FF045
:100B8000010803254FF00F0E0B6808FA02F423400A
:100B9000A3426ED14E68012E05D0022E03D0112E35
:100BA00001D0122E12D186684FEA420C05FA0CF7DA
:100BB000BE43CF6807FA0CF7374387604668A64301
:100BC0000C79C4F30014944034434460C668570061
:100BD00005FA07FC8C6826EA0C06BC403443C46066
:100BE0004C68022C01D0122C13D1D40800EB8404E1
:100BF000A346D4F8209054074FEAD46A0EFA0AF6B6
:100C000029EA06090E6906FA0AF646EA0906CBF849
:100C1000206004680E7924EA0C0406F00306BE4046
:100C2000264306604C68E4006FD53B4C266846F4CA
:100C300080462660246822F0030604F48044009471
:100C4000364C3444A446D4F808489607360F0EFABA
:100C500006F7BC43324FB84201D100272EE0314F96
:100C6000B84201D1012729E02F4FB84202D1022713
:100C700024E04AE02D4FB84201D103271EE02C4F5B
:100C8000B84201D1042719E02A4FB84201D1052703
:100C900014E0294FB84201D106270FE0274FB84290
:100CA00001D107270AE0264FB84201D1082705E005
:100CB000244FB84201D1092700E00A27B740274353
:100CC000CCF80878204E34684F689C43FF0300D569
:100CD0001C4334601C4E361D34684F689C43BF0370
:100CE00000D51C433460184E083634684F689C4366
:100CF000FF0200D51C433460134E0C3634684F6835
:100D00009C43BF0200D51C433460521C102AFFF4E0
:100D10003BAFBDE8F88F000044380240003001408E
:100D2000000002400004024000080240000C0240A3
:100D3000001002400014024000180240001C024053
:100D40000020024000240240003C014000690840AD
:100D500000D0012070470AB1816170470904FBE7A8
:100D600001488068704700005800002002488168F0
:100D70000278114481607047580000200B4810B57C
:100D8000016841F400710160016841F48061016013
:100D9000016841F480710160032000F06FF80020C9
:100DA00000F006F800F024F8002010BD003C0240DE
:100DB00070B50D4D04464FF47A712878B1FBF0F010
:100DC0000A490968B1FBF0F000F004FB48B9102CA7
:100DD00007D200222146501E00F030F800206C603F
:100DE00070BD012070BD000058000020640000208C
:100DF0000A4808B5016841F480410160006800F4C8
:100E0000804000900548001F016841F0805101605A
:100E1000006800F08050009008BD00004438024097
:100E2000002809DB00F01F020121914040098000E9
:100E300000F1E020C0F8001170470000F0B40E4B44
:100E40001B680C46C3F30223C3F10705042D00D928
:100E50000425191D072901D2002300E0DB1E01260D
:100E600006FA05F1491E214099409E40761E164023
:100E70003143F0BC00F04FBE0CED00E0064900F03D
:100E8000070208684FF6FF03184040EA0220034AB1
:100E900010430860704700000CED00E00000FA0508
:100EA0002DE9F0470E46050065D0DFF81481D8F82B
:100EB0000000F7B200F00F00B04207D288F80070CF
:100EC000D8F8000000F00F00B04254D128683D4C23
:100ED000810712D5400703D5206840F4E050206018
:100EE0002878000703D5206840F46040206020681F
:100EF000A96820F0F000084320602878C0072DD0B2
:100F0000304968680839012812D0022813D0032814
:100F100011D00968890700292DDA216821F0030121
:100F200001432160FFF71CFF814641F2883A0EE041
:100F300009688903EFE709688901ECE7FFF710FF0B
:100F4000A0EB0901514502D90320BDE8F0872068D4
:100F5000696800F00C00B0EB810FEFD1D8F80010F9
:100F6000404601F00F01B14207D90770006800F058
:100F70000F00B04201D00120E7E72878400705D5EF
:100F80002068E96820F4E0500843206028780007D2
:100F900006D52068296920F4604040EAC10020603D
:100FA00000F038F82168084AC1F30311515CC840C9
:100FB0000649086006480068FFF7FAFE0020C4E70B
:100FC000003C024008380240201D00086400002058
:100FD0005C0000200448054900680968044AC1F320
:100FE0008221515CC84070476400002008380240EC
:100FF000301D00080448054900680968044AC1F327
:101000004231515CC84070476400002008380240FB
:10101000301D0008154810B5006810F00C02144887
:1010200013D01449042A0FD0082A0ED10F4C241FC4
:101030002268236802F03F025B0207D52068C0F3F4
:101040008810A0FB010106E0084610BD2168C1F32D
:101050008811A1FB00010023FFF7C4F82168C1F348
:101060000141491C4900B0FBF1F010BD08380240B5
:101070000024F400001BB7002DE9F84F04006ED0E7
:101080002078DFF83C93C007A9F104054AD009F1A4
:1010900004000168C1F38101012908D00068C0F390
:1010A000810002280AD1D9F80000400206D528683C
:1010B000800337D560680028E1D033E06068B0F580
:1010C000803F10D0B0F5A02F286810D020F48030D9
:1010D0002860286820F4802028606068A8B1FFF7A5
:1010E0003FFE06460DE0286840F48030F4E740F407
:1010F00080202860F7E700BFFFF732FE801B6428DE
:1011000073D828688003F7D50CE0FFF729FE064660
:1011100005E000BFFFF724FE801B6428F0D8286894
:101120008003F7D42078DFF89C8280074FF0000A14
:101130003ED5A348001D016811F00C0F08D00068CF
:10114000C0F3810002280BD1D9F80000400207D477
:101150002868800716D5E068012800D112E02BE14D
:10116000E068B8B10120C8F80000FFF7F9FD0646B5
:1011700005E000BFFFF7F4FD801B0228C0D82868F7
:101180008007F7D52868216920F0F80040EAC100FF
:1011900028600DE0C8F800A0FFF7E2FD064604E075
:1011A000FFF7DEFD801B02281FD828688007F7D4D0
:1011B0002078000722D5824E83486169703671B16C
:1011C00001210160FFF7CCFD074604E0FFF7C8FDF1
:1011D000C01B022809D830688007F7D50EE0C0F898
:1011E00000A0FFF7BDFD074605E082E0FFF7B8FD70
:1011F000C01B02287DD830688007F7D420784007CC
:1012000068D5DFF8BCB100270BF13C0BDBF8000020
:10121000C0000BD4DBF8001041F08051CBF8001077
:10122000DBF80000012700F080500090674E306826
:10123000C00510D4306840F480703060FFF790FD36
:10124000009005E0FFF78CFD0099401A022850D865
:101250003068C005F6D55A4EA0686C3601280FD00C
:101260000528306810D020F001003060306820F090
:1012700004003060A068B8B1FFF772FD00900FE085
:10128000306840F00100F4E740F004003060F7E718
:10129000FFF766FD0099411A41F28830814266D815
:1012A00030688007F4D50EE0FFF75AFD009007E0A4
:1012B000FFF756FD0099411A41F28830814256D815
:1012C00030688007F4D42FB1DBF8001021F0805192
:1012D000CBF80010A069C8B33949091D0968C1F3EA
:1012E000810102294AD00228504607D0C8F8600080
:1012F00000E03CE0FFF734FD04463BE04746C8F819
:101300006000FFF72DFD064605E000BFFFF728FD52
:10131000801B02282BD828688001F7D4D4E9070164
:101320000843A16A2A4A490802EB0141626A41EA7C
:101330008211084394F82C1040EA0161C9F80010AA
:1013400001203866FFF70CFD044606E036E000BFDA
:10135000FFF706FD001B022809D828688001F7D591
:101360002CE000BFFFF7FCFC001B022802D9032081
:10137000BDE8F88F28688001F4D41FE00128F7D079
:10138000D9F80000E26900F48001914214D1226A88
:1013900000F03F0191420FD147F6C071626A0140EF
:1013A000914209D1A26A00F44031914204D1E16A2C
:1013B00000F07060884201D00120D9E70020D7E713
:1013C0000438024000004742800E4742007000404F
:1013D0000000FFFF10B5401EB0F1807F01D3012057
:1013E00010BD4FF0E02460610F21601700F093FB07
:1013F0000020A06107202061002010BD70B504000E
:1014000004D094F83900002510B106E0012070BD29
:1014100084F83850204600F023F8242084F839005E
:101420002068C16821F40051C160204600F0ACFA88
:101430002068016921F4904101612068416921F02F
:101440002A0141612068C16841F40051C160E5632F
:10145000202084F8390084F83A00002070BD000094
:1014600030B587B0044614216846FEF7F3FE234DDD
:1014700022680021224802230324AA421BD1204AC9
:101480001032156845F400351560126802F4003218
:101490000592026842F0080202600068CDE9021479
:1014A00000F0080005906020CDE9000307200490BB
:1014B000694614481EE0144DAA421DD1104A143248
:1014C000156845F020051560126802F020020592AB
:1014D000026842F0400202600068CDE9021400F0A8
:1014E000400005904FF48440CDE9000308200490AB
:1014F00069460648FFF740FB07B030BD0044004096
:1015000030380240000C0240001401400018024034
:101510002DE9F843044690F839001F4616460D465B
:10152000202850D1B5B1AEB194F8380001284AD086
:10153000012084F838004FF00008C4F83C802120D6
:1015400084F83900FFF70CFCA6848146E68484F811
:10155000388026E00120BDE8F883E08C401EE0845E
:10156000A0684B46B0F5805F4FF000024FF080015D
:101570002046009703D000F09BFAE8B90DE000F098
:1015800097FAC8B928882168C0F308004860206924
:1015900008B16D1C05E0AD1C03E0216815F8010BD6
:1015A0004860E08C0028D8D14B46002240212046DC
:1015B000009700F07DFA08B10320CCE7202084F8E2
:1015C00039000020C7E70220C5E7FEE710B5042177
:1015D0001048FFF7BBFB1049002208B14A6010BD5C
:1015E00048680028FBD101234B60886800EB400469
:1015F000C4EBC0100C6804EB001041F2707408607A
:10160000A04201DD9C1E8C600028E8DC8B600A6033
:1016100010BD00000004024028000020104810B552
:101620000E4901600321416000214FF410228160C6
:10163000C0E903124FF400124261012202764176A2
:101640008176C17602774277FFF731F9002803D01F
:10165000BDE81040FEF7BBBE10BD000000640040B6
:10166000280200200D4810B50B490160102141608F
:1016700000218160C160016141610176417681761E
:10168000C17601774177FFF712F9002803D0BDE852
:101690001040FEF79CBE10BD0068004050020020C4
:1016A00030B587B014216846FEF7D4FD21480024E8
:1016B000016841F002010160016801F00201059139
:1016C000016841F040010160016801F040010591AD
:1016D000016841F001010160016801F0010105911B
:1016E000016841F008010160016801F008010591FD
:1016F000016841F08001016000680F4D00F080003A
:10170000059001223C212846FFF725FB3C20009054
:101710000120CDE90104694628460394FFF72CFA1D
:101720000420CDE90004694604480294FFF724FA36
:1017300007B030BD30380240001C024000040240B7
:101740000C4810B50A4901604FF4E13141600021B5
:1017500081600C22C160C0E904128161C161FFF7A0
:101760004DFE002803D0BDE81040FEF730BE10BD8E
:1017700000440040780200200C4810B50A4901607E
:101780004FF4E1314160002181600C22C160C0E969
:1017900004128161C161FFF731FE002803D0BDE86A
:1017A0001040FEF714BE10BD00140140B802002026
:1017B000FEE77047A0B1D0ED071AC0ED081A90ED12
:1017C000061A80ED071AC0ED040A80ED050A30EE16
:1017D000C00A80ED060A017829B1012931D064E000
:1017E0009FED330A7047D0ED010A60EE801AC0ED1C
:1017F000091AD0ED0A0A90ED022A42EE000A30EEF4
:10180000410AC0ED0A0A90ED031A20EE011A80ED9C
:101810000B1A90ED0D0AF4EEC00AF1EE10FA09DC95
:10182000B1EE400AF4EEC00AF1EE10FA02D390EDE8
:101830000A0A01E080ED0A0A31EE800A30EE010A60
:1018400021E070EE410A90ED012AF0EE002A20EE30
:10185000822A80ED092AD0ED020A60EE800A01EEAC
:10186000620AC0ED0A0A90ED031A72EE200A30EE09
:10187000210A20EE010A80ED0B0A30EE800AD0ED3D
:101880000C0A30EE200A80ED0C0AD0ED0E0AB4EE00
:10189000E00AF1EE10FA06DCF1EE600AB4EEE00ABE
:1018A000F1EE10FA01D2C0ED0C0A90ED0C0A70476F
:1018B0000000000000280FD00170C0ED0D0A80ED7F
:1018C0000E0A9FED060A80ED080A80ED070A80EDFA
:1018D000060A001D80EC031A70470000000000009B
:1018E00070477047FFF742BA30B593B03021684671
:1018F000FEF7B0FC14210CA8FEF7ACFC194800253B
:10190000016841F080510160006800F08050119042
:101910001548016841F4404101600068022400F468
:101920004040119001200090000401908001CDE919
:10193000064006200890A820CDE9090404200B9059
:101940006846FFF799FB0CA90F2081E831004FF49E
:10195000A0500F90E002109005210CA8FFF7A0FA0C
:1019600013B030BD403802400070004005480168A7
:1019700041F47001016003494FF000608039086054
:101980007047000088ED00E02DE9F0410446006852
:101990000169E26821F44051114301612169A068A5
:1019A000E26908436169114308432168CA6849F242
:1019B0000C639A430243CA6020684169A26921F41A
:1019C000407111434161E069192764253226B0F561
:1019D000004F354A354920684FF0000806D088424C
:1019E00001D0904236D1FFF705FB35E0884201D0A7
:1019F000904202D1FFF7FEFA01E0FFF7EBFA6168CF
:101A00004A18A0FB070148EB0803FEF7EBFB014671
:101A1000B0FBF5F00201B1FBF5F06FF0180358438D
:101A200001EB800006EBC000B0FBF5F000F0F80021
:101A300002EB4002B1FBF5F0584301EB800006EBEE
:101A4000C000B0FBF5F000F007002168104488608A
:101A5000BDE8F081FFF7BEFA61688B0F8A00A0FB3A
:101A60000701FEF7BFFB0146B0FBF5F06FF018026F
:101A7000504301EB800006EB0010B0FBF5F000F0E6
:101A8000F002B1FBF5F002EB0012B1FBF5F06FF0E4
:101A90001803584301EB800006EB0010B0FBF5F093
:101AA00000F00F00D1E700000014014000100140D9
:101AB0002DE9F041984617460E460446069D1DE066
:101AC000681C1BD02DB1FFF74BF9A0EB0800A84212
:101AD00014D92068C16821F4D071C16020684169BF
:101AE00021F001014161202084F8390084F83A0096
:101AF000002084F838000320BDE8F08120680068E9
:101B000036EA000004D00020B842D9D00020F3E724
:101B10000120F9E7FEE70907090E002804DB00F1C0
:101B2000E02080F80014704700F00F0000F1E02082
:101B300080F8141D704702E008C8121F08C1002A6F
:101B4000FAD170477047002001E001C1121F002A3E
:101B5000FBD1704700F00300024900EB800001EB6D
:101B60004000704786000020028802810A8852BA2D
:101B700002804A8852BA42808A8852BA8280897921
:101B8000817170470A8802804A8842808A888280F0
:101B9000C988C180704700002DED028BFFF7EEF879
:101BA000FFF7A2FEFFF77CFDFFF738FDFFF7E4FD2E
:101BB000FFF758FDFFF7C4FD444F434E0024A7F143
:101BC00010089FED438A06F1100500BF06EB840064
:101BD000B0EE480A90ED002A07EB8400F0EE400AD0
:101BE000D0ED001A08EB8400002190ED001AC4EB40
:101BF000041005EB8000FFF75DFE641C042CE5DBA0
:101C0000FEF796FB334FDFF8C48007F11006A8F10A
:101C10001C0800BFFFF7DAFC0024E0B2FFF79AFFD0
:101C200047F82400B0F90200D8ED000A00EE100ACF
:101C3000C4EB041005EB8000B8EEC00AF8EEE00A31
:101C4000FFF7B8FD06EB8400641C80ED000A042C4D
:101C5000E3DB96ED030ABDEEC00A10EE100A96ED26
:101C6000020A03B2BDEEC00A10EE100A96ED010A98
:101C700002B2BDEEC00A10EE100A96ED000A01B2E3
:101C8000BDEEC00A10EE100A00B2FEF77BFB38680A
:101C90004188104820300180B8F80010418095ED4F
:101CA000090ABDEEC00A10EE101A818095ED0A0AED
:101CB000BDEEC00A10EE101AC180102100F00CF821
:101CC0000A20FEF747FFA5E7F800002044000020A7
:101CD00000A00C46F80100207CB504460DA00D467E
:101CE000006800900CA041F28836006801903346ED
:101CF000022269460948FFF70BFCAAB23346214687
:101D00000648FFF705FC3346022201A90348FFF706
:101D1000FFFB7CBD03FC0000FC03000078020020F8
:101D2000000000000000000001020304060708098B
:101D30000000000001020304581D000800000020FC
:101D400068000000361B0008C01D00086800002065
:101D500090060000461B0008000000000000000084
:101D60000000000000000000000000000000000073
:101D70000000000000000000000000000000000063
:101D80000000000000000000010000003D0AD73EF6
:101D90000000803F0000803F0000803F17B7D13B2C
:101DA0000000000000000000000000000000000033
:101DB0000100000010000000000000000024F400FA
:04000005080001AD41
:00000001FF
