:020000040800F2
:10000000C8070020C1010008D71C0008C91A000851
:10001000D51C0008CD020008F121000800000000F6
:10002000000000000000000000000000FF1E0008AB
:100030009504000800000000051E0008011F0008CC
:10004000DB010008DB010008DB010008DB01000820
:10005000DB010008DB010008DB010008DB01000810
:10006000DB010008DB010008DB010008DB01000800
:10007000DB010008DB010008DB010008DB010008F0
:10008000DB010008DB010008DB0100087903000840
:100090006D030008DB010008DB010008DB0100083C
:1000A000DB010008DB010008DB010008DB010008C0
:1000B000DB010008DB010008DB010008DB010008B0
:1000C000DB010008DB010008DB010008DB010008A0
:1000D000DB010008DB010008DB010008DB01000890
:1000E000DB010008DB010008DB010008DB01000880
:1000F000DB010008DB010008DB010008DB01000870
:10010000DB010008DB010008DB010008DB0100085F
:10011000DB010008DB010008DB010008DB0100084F
:10012000DB010008DB010008E5030008DB01000833
:10013000DB010008DB010008DB0100089103000877
:1001400085030008DB010008DB010008DB01000873
:10015000DB010008DB010008DB010008DB0100080F
:10016000DB010008DB010008DB010008DB010008FF
:10017000DB010008DB010008DB01000800000000D3
:10018000DB010008DB010008DB010008DB010008DF
:10019000DB010008DB010008DB010008DB010008CF
:1001A0000000000000000000DB010008DFF80CD0B8
:1001B00000F07AF8004800477D220008C8070020B8
:1001C0000648804706480047FEE7FEE7FEE7FEE7F1
:1001D000FEE7FEE7FEE7FEE7FEE7FEE7891F000811
:1001E000AD0100082DE9F05F0546002092469B46D0
:1001F00088460646814640241BE02846414647463D
:10020000224600F041F853465A46C01A914110D395
:1002100011461846224600F028F82D1A67EB01080F
:100220004F4622460120002100F01FF817EB00097D
:100230004E41201EA4F10104DFDC484631462A4627
:100240004346BDE8F09FD2B201E000F8012B491E01
:10025000FBD270470022F6E710B513460A46044663
:100260001946FFF7F0FF204610BD202A04DB203A94
:1002700000FA02F1002070479140C2F1200320FAF9
:1002800003F3194390407047202A04DB203A21FAF7
:1002900002F00021704721FA02F3D040C2F120029F
:1002A0009140084319467047064C074D06E0E06848
:1002B00040F0010394E8070098471034AC42F6D3AD
:1002C000FFF778FF3024000850240008FEE7000004
:1002D0000068B0F5017F08D012DCA0F50072013A89
:1002E00003D0012A01D0022A1CD10F4A401EC0B2FD
:1002F00010700E4A00EB800002EB400001F0A2BF3C
:10030000A0F5007005380AD0012805D00C2809D1C5
:100310000548203001F0A8BF04481E38EEE7034826
:100320001438EBE770470000000000208E0000202A
:1003300000B58BB000200121CDE9060103900891A2
:10034000049000900E210190029009910590694659
:10035000054800F017F90221034800F09DF8024813
:1003600000F036FC0BB000BD58020020014800F040
:1003700004BA000058020020014800F0FEB9000055
:1003800058020020014800F0F8B900008002002067
:10039000014800F0F2B900008002002030B40E4C99
:1003A0004FF4007525600025A560E56008252561EE
:1003B0000A4C050A25706070080AA070E170100AE6
:1003C00020716271180AA071E371231F30BC1A1DDD
:1003D0000149034800F072B8E8000020080000203E
:1003E00058020020014800F027BC000068030020EC
:1003F00001681823CAB2103AB2FBF3F2054B6FF34F
:100400000901032A9B5CC36500D9091D8165084663
:10041000704700001024000810B5014600208B69C9
:100420008A6A4FF0C07453B1B3F5005F15D072B152
:10043000012A0CD0022A0AD0032A09D104E01AB1F9
:10044000012A06D0022A03D1C96AC90100D50120B8
:1004500010BDC96AA142FAD010BD002AF7D0012A06
:10046000F2D0022AF3D0032AF3D010BD30B50468CD
:10047000256825F480252560046863608368402B27
:10048000036803D099600068C26030BD9A6000685C
:10049000C16030BD7047704790F82020012A07D016
:1004A000022A05D0416A41F480214162012070474F
:1004B000006842690A43426100207047F0B590F835
:1004C00020500468A468012D05D0022D03D0416A94
:1004D00041F4802153E014F0406F01D1E5004BD589
:1004E000C4F30164022C03D9416A41F4000146E0DF
:1004F0000125A5401D608D684FF4C0739DB1CE6885
:1005000035434E6845EAC605066803EB0417F55106
:100510004FF4C275076805EB04150E697E51097D1D
:10052000012905D009E00E88CD6845EA4655EBE77C
:1005300001684E5946F480764E511179D2F8055033
:100540004FF4C67641EA0525016806EB04168D5185
:100550001178D2F801204FF4C47541EA02210268F3
:1005600005EB04155151006803EB0411425842F0A9
:10057000010242500020F0BD416A41F40011416285
:100580000120F0BD10B590F82020012A07D0022AE2
:1005900005D0416A41F480214162012010BD3B48F1
:1005A000D0F8002242F00102C0F80022D0F8002268
:1005B00022F47C52C0F80022D0F800224B6A42EAB2
:1005C0000322C0F800220A7D02F01F0301229A4094
:1005D000D0F81C329343C0F81C32CB69B3B9D0F8C1
:1005E0000C329343C0F80C328C894B6864F31F4380
:1005F0004C6900EBC404C4F840320C890B6864F306
:100600001F434C6900EBC404C4F84432CB69012B8E
:1006100016D1D0F80C321343C0F80C320C884B685A
:1006200064F31F434C6900EBC404C4F840320C89E6
:10063000CB6864F31F434C6900EBC404C4F8443234
:100640008B69002BD0F804320ED01343C0F804326B
:100650000B69002BD0F8143208D01343C0F81432C1
:10066000096A012904D008E09343EFE79343F5E7D3
:10067000D0F81C121143C0F81C12D0F8001221F05F
:100680000101C0F80012002010BD0000006400400D
:10069000704730B590F82040012C05D0022C03D0D3
:1006A000416A41F480215DE00468002955D0246945
:1006B000A40754D04FF4D874056804EB01142D59E5
:1006C00015F00405956005682D594ED0ED0855606C
:1006D00005682C5904F00204D4604FF4DA740568FC
:1006E00004EB01142D5905F00F05156105682D590E
:1006F000C5F30725956105682C59240C54614FF406
:10070000DC72046802EB0112A4581C700468A4583F
:10071000240A5C700468A458240C9C700468A258D5
:10072000120EDA704FF4DE72046802EB0112A45864
:100730001C710468A458240A5C710468A458240C31
:100740009C710468A258120EDA71006881B10169C7
:1007500041F020010161002030BDE468A8E7416A52
:1007600041F400114162012030BD6D0D1560AFE70D
:10077000C16841F02001C160EDE72DE9F05F054659
:10078000006800244669D0F804908768D0F80CB05F
:10079000D0F810A0D0F81880F10748D0F90714D08D
:1007A00001218160B80703D5284600F03EFA0CE02D
:1007B000780702D54FF4006407E0380702D54FF4FC
:1007C000805402E0284600F02FFAF80516D5296873
:1007D0004FF480708860B80503D5284600F027FAEA
:1007E0000CE0780502D544F4005407E0380502D542
:1007F00044F4804402E0284600F018FAF80316D5C5
:1008000029684FF480308860B80303D5284600F08B
:1008100010FA0CE0780302D544F4004407E03803F2
:1008200002D544F4803402E0284600F001FA300793
:1008300007D55FEACB6004D52968102044F4007422
:10084000C86070074FF0080707D55FEA0B7004D542
:100850002868C760284600F0A9F9B00706D52868BF
:10086000C068800702D0284600F0A1F9700607D5BD
:100870005FEACA6004D52968102044F480640861E6
:10088000B00607D55FEA0A7004D5286807612846D4
:1008900000F09AF9F00606D528680069800702D0B2
:1008A000284600F092F9B00308D55FEAC96005D583
:1008B000296810204860284600F088F9F00307D521
:1008C0005FEA097004D528684760284600F0B2F94D
:1008D000300446D55FEA497040D5F00504D55FEA9B
:1008E000C87001D044F00104B00504D55FEA8870F7
:1008F00001D544F00204700504D55FEA487001D5C3
:1009000044F00404300529D518F0700F26D008F003
:100910007000402815D006DC102809D020280AD005
:10092000302816D10AE050280ED0602811D10EE0F0
:1009300044F008040DE044F010040AE044F0200400
:1009400007E044F0400404E044F0800401E044F493
:1009500080742868816921F0700181612968042010
:100960004860002C05D0686A204368622846FFF77B
:100970008FFEBDE8F09F70B5040003D094F820000E
:1009800010B104E0012070BD204600F081F820681D
:10099000016821F00201016000F0C2FB0546052656
:1009A00004E000F0BDFB401B0A2811D82068406815
:1009B0008007F6D42068016841F00101016000F071
:1009C000AFFB05460BE000F0ABFB401B0A2806D945
:1009D000606A40F40030606284F82060D2E72068EA
:1009E0004068C007EFD0207E0128206801683DD014
:1009F00021F080010160607E01282068016838D004
:100A000021F040010160A07E01282068016833D0F8
:100A100021F020010160E07E0128206801682ED0CD
:100A200041F010010160207F01282068016829D071
:100A300021F008010160607F01282068016824D04E
:100A400021F004010160D4E902010843D4E9041251
:100A5000114308436168491E08432168C8610020AA
:100A60006062012084F82000002070BD41F0800108
:100A7000C0E741F04001C5E741F02001CAE721F09D
:100A80001001CFE741F00801D4E741F00401D9E7B4
:100A9000F0B587B0044614216846FFF7DBFB3E4BF8
:100AA0003E48DFF8F0E01968D4F800C03B4A03255F
:100AB0000226092710300024491CF4452AD1196068
:100AC000012907D1016841F000710160006800F060
:100AD00000700590106840F0080010601068CDE9C3
:100AE000005600F00800CDE9047069462C48CDE9B5
:100AF000024500F025FA00221146132000F07EFB8B
:100B0000132000F06DFB00221146142000F076FB4C
:100B100014203BE0DFF88CE0F44539D1D0F800C078
:100B20004CF0806CC0F800C0D0F800C001290CF077
:100B3000806CCDF814C0196007D1016841F00071D4
:100B40000160006800F000700590106840F002003D
:100B50001060106802AB00F0020005904FF44050A6
:100B6000CDE9000683E8B00069460F4800F0E8F9D7
:100B7000002211463F2000F041FB3F2000F030FBF7
:100B800000221146402000F039FB402000F028FBF5
:100B900007B0F0BD0064004058000020303802402B
:100BA000000C02400068004000040240704700B59D
:100BB00089B007AB6A460021FFF76BFD07A96846BD
:100BC000FFF786FB09B000BD704770477047000013
:100BD00070B5044690F82000012804D0606A40F403
:100BE0000020606218E0022084F82000206801687C
:100BF00021F00101016000F093FA05460EE000BF0C
:100C000000F08EFA401B0A2808D9606A40F40030D0
:100C10006062052084F82000012070BD20684068D3
:100C2000C007EDD1606270BD704770477047704774
:100C300070477047704700002DE9F84304464FF0B5
:100C40000009CDF8009063484FF41651A56D006877
:100C5000B0FBF1F72E6894F85C10082000FA01F15F
:100C600031420FD021680A6852070BD50A6822F07A
:100C700004020A6094F85C108840A860606D40F03F
:100C80000100606594F85C104FF0010808FA01F06B
:100C9000304208D021684969090604D5A860606D12
:100CA00040F00200606594F85C10042088403042F7
:100CB00008D021680968890704D5A860606D40F0F4
:100CC0000400606594F85C1010208840304218D011
:100CD00021680968090714D5A860206801684903DC
:100CE00004D50068000308D5A16C07E00168C905B8
:100CF00003D4016821F008010160216C09B120468C
:100D0000884794F85C1020208840304231D0216818
:100D10000968C9062DD5A86094F835000528206813
:100D2000016806D0490347D5006800031DD4616CF3
:100D30001CE021F0160101602068416921F080016A
:100D40004161206C08B9A06C20B12068016821F0D5
:100D50000801016094F85C103F208840A86084F886
:100D6000349084F83580216D1FE0E16B09B1204695
:100D70008847606D00282BD0606DC00714D0052017
:100D800084F835002068016821F0010101600098B5
:100D9000401C0090B84203D820680068C007F6D114
:100DA00084F8349084F83580E16C002910D001B0CB
:100DB0002046BDE8F04308470168C905D5D401685D
:100DC00021F01001016084F8349084F83580CCE77C
:100DD000BDE8F883680000202DE9F041044600F0EA
:100DE0009FF906465CB1002584F83450022084F84F
:100DF00035002068016821F0010101600DE001204B
:100E0000BDE8F08100F08CF9801B052805D9202071
:100E10006065032084F83500F2E720680068C007A9
:100E2000F0D12268116820480140D4E90103184339
:100E3000D4E903363343184363691843A36918435D
:100E4000E3691843236A18430843616A042903D1FC
:100E5000D4E90B1319430843106020684069666A9F
:100E600020F0070130460E43012704280CD1A06A68
:100E70000643E06A40B12046FFF7CEFA20B1402099
:100E8000606584F83570BAE7206846612046FFF750
:100E9000AFFA94F85C203F2191408160656584F849
:100EA00035700020ACE700003F8010F02DE9F041E4
:100EB0000446866D90F83400002501280DD00120ED
:100EC00084F8340094F835700020012F07D084F89E
:100ED000340002252846BDE8F0810220FBE7022706
:100EE00084F8357060652046FFF7C0FA94F85C100E
:100EF0003F208840B0602068016841F01601016021
:100F0000206C20B12068016841F008010160206870
:100F1000016841F001010160DCE7000070B50446A2
:100F200000F0FEF80546601C02D004480078044436
:100F300000F0F6F8401BA042FAD370BD5C00002020
:100F40002DE9F84F00224FF0010803254FF00F0E56
:100F50000B6808FA02F42340A3426ED14E68012EBA
:100F600005D0022E03D0112E01D0122E12D1866888
:100F70004FEA420C05FA0CF7BE43CF6807FA0CF7AC
:100F8000374387604668A6430C79C4F30014944045
:100F900034434460C668570005FA07FC8C6826EAAB
:100FA0000C06BC403443C4604C68022C01D0122CA7
:100FB00013D1D40800EB8404A346D4F8209054073E
:100FC0004FEAD46A0EFA0AF629EA06090E6906FA09
:100FD0000AF646EA0906CBF8206004680E7924EA8E
:100FE0000C0406F00306BE40264306604C68E4008D
:100FF0006FD53B4C266846F480462660246822F074
:10100000030604F480440094364C3444A446D4F8D7
:1010100008489607360F0EFA06F7BC43324FB8421F
:1010200001D100272EE0314FB84201D1012729E03C
:101030002F4FB84202D1022724E04AE02D4FB84298
:1010400001D103271EE02C4FB84201D1042719E03B
:101050002A4FB84201D1052714E0294FB84201D1E7
:1010600006270FE0274FB84201D107270AE0264F95
:10107000B84201D1082705E0244FB84201D1092721
:1010800000E00A27B7402743CCF80878204E3468A0
:101090004F689C43FF0300D51C4334601C4E361D33
:1010A00034684F689C43BF0300D51C433460184E1E
:1010B000083634684F689C43FF0200D51C433460F7
:1010C000134E0C3634684F689C43BF0200D51C4356
:1010D0003460521C102AFFF43BAFBDE8F88F0000CB
:1010E0004438024000300140000002400004024049
:1010F00000080240000C02400010024000140240B0
:1011000000180240001C024000200240002402405F
:10111000003C01400AB1816170470904FBE700000F
:1011200001488068704700005C0000200248816828
:1011300002781144816070475C0000200B4810B5B4
:10114000016841F400710160016841F4806101604F
:10115000016841F480710160032000F06FF8002005
:1011600000F006F800F024F8002010BD003C02401A
:1011700070B50D4D04464FF47A712878B1FBF0F04C
:101180000A490968B1FBF0F000F004FB48B9102CE3
:1011900007D200222146501E00F030F800206C607B
:1011A00070BD012070BD00005C00002068000020C0
:1011B0000A4808B5016841F480410160006800F404
:1011C000804000900548001F016841F08051016097
:1011D000006800F08050009008BD000044380240D4
:1011E000002809DB00F01F02012191404009800026
:1011F00000F1E020C0F8001170470000F0B40E4B81
:101200001B680C46C3F30223C3F10705042D00D964
:101210000425191D072901D2002300E0DB1E012649
:1012200006FA05F1491E214099409E40761E16405F
:101230003143F0BC00F0DDBF0CED00E0064900F0EA
:10124000070208684FF6FF03184040EA0220034AED
:1012500010430860704700000CED00E00000FA0544
:101260002DE9F0470E46050065D0DFF81481D8F867
:101270000000F7B200F00F00B04207D288F800700B
:10128000D8F8000000F00F00B04254D128683D4C5F
:10129000810712D5400703D5206840F4E050206054
:1012A0002878000703D5206840F46040206020685B
:1012B000A96820F0F000084320602878C0072DD0EE
:1012C000304968680839012812D0022813D0032851
:1012D00011D00968890700292DDA216821F003015E
:1012E00001432160FFF71CFF814641F2883A0EE07E
:1012F00009688903EFE709688901ECE7FFF710FF48
:10130000A0EB0901514502D90320BDE8F087206810
:10131000696800F00C00B0EB810FEFD1D8F8001035
:10132000404601F00F01B14207D90770006800F094
:101330000F00B04201D00120E7E72878400705D52B
:101340002068E96820F4E05008432060287800070E
:1013500006D52068296920F4604040EAC100206079
:1013600000F038F82168084AC1F30311515CC84005
:101370000649086006480068FFF7FAFE0020C4E747
:10138000003C024008380240182400086800002091
:10139000600000200448054900680968044AC1F358
:1013A0008221515CC8407047680000200838024024
:1013B000282400080448054900680968044AC1F364
:1013C0004231515CC8407047680000200838024034
:1013D00028240008154810B5006810F00C021448C5
:1013E00013D01449042A0FD0082A0ED10F4C241F01
:1013F0002268236802F03F025B0207D52068C0F331
:101400008810A0FB010106E0084610BD2168C1F369
:101410008811A1FB00010023FEF7E4FE2168C1F35F
:101420000141491C4900B0FBF1F010BD08380240F1
:101430000024F400001BB7002DE9F84F04006ED023
:101440002078DFF83C93C007A9F104054AD009F1E0
:1014500004000168C1F38101012908D00068C0F3CC
:10146000810002280AD1D9F80000400206D5286878
:10147000800337D560680028E1D033E06068B0F5BC
:10148000803F10D0B0F5A02F286810D020F4803015
:101490002860286820F4802028606068A8B1FFF7E1
:1014A0003FFE06460DE0286840F48030F4E740F443
:1014B00080202860F7E700BFFFF732FE801B64281A
:1014C00073D828688003F7D50CE0FFF729FE06469D
:1014D00005E000BFFFF724FE801B6428F0D82868D1
:1014E0008003F7D42078DFF89C8280074FF0000A51
:1014F0003ED5A348001D016811F00C0F08D000680C
:10150000C0F3810002280BD1D9F80000400207D4B3
:101510002868800716D5E068012800D112E02BE189
:10152000E068B8B10120C8F80000FFF7F9FD0646F1
:1015300005E000BFFFF7F4FD801B0228C0D8286833
:101540008007F7D52868216920F0F80040EAC1003B
:1015500028600DE0C8F800A0FFF7E2FD064604E0B1
:10156000FFF7DEFD801B02281FD828688007F7D40C
:101570002078000722D5824E83486169703671B1A8
:1015800001210160FFF7CCFD074604E0FFF7C8FD2D
:10159000C01B022809D830688007F7D50EE0C0F8D4
:1015A00000A0FFF7BDFD074605E082E0FFF7B8FDAC
:1015B000C01B02287DD830688007F7D42078400708
:1015C00068D5DFF8BCB100270BF13C0BDBF800005D
:1015D000C0000BD4DBF8001041F08051CBF80010B4
:1015E000DBF80000012700F080500090674E306863
:1015F000C00510D4306840F480703060FFF790FD73
:10160000009005E0FFF78CFD0099401A022850D8A1
:101610003068C005F6D55A4EA0686C3601280FD048
:101620000528306810D020F001003060306820F0CC
:1016300004003060A068B8B1FFF772FD00900FE0C1
:10164000306840F00100F4E740F004003060F7E754
:10165000FFF766FD0099411A41F28830814266D851
:1016600030688007F4D50EE0FFF75AFD009007E0E0
:10167000FFF756FD0099411A41F28830814256D851
:1016800030688007F4D42FB1DBF8001021F08051CE
:10169000CBF80010A069C8B33949091D0968C1F326
:1016A000810102294AD00228504607D0C8F86000BC
:1016B00000E03CE0FFF734FD04463BE04746C8F855
:1016C0006000FFF72DFD064605E000BFFFF728FD8F
:1016D000801B02282BD828688001F7D4D4E90701A1
:1016E0000843A16A2A4A490802EB0141626A41EAB9
:1016F0008211084394F82C1040EA0161C9F80010E7
:1017000001203866FFF70CFD044606E036E000BF16
:10171000FFF706FD001B022809D828688001F7D5CD
:101720002CE000BFFFF7FCFC001B022802D90320BD
:10173000BDE8F88F28688001F4D41FE00128F7D0B5
:10174000D9F80000E26900F48001914214D1226AC4
:1017500000F03F0191420FD147F6C071626A01402B
:10176000914209D1A26A00F44031914204D1E16A68
:1017700000F07060884201D00120D9E70020D7E74F
:101780000438024000004742800E4742007000408B
:101790000000FFFF10B5401EB0F1807F01D3012093
:1017A00010BD4FF0E02460610F21601700F021FDB3
:1017B0000020A06107202061002010BD704770B597
:1017C000040004D094F83900002510B106E001208F
:1017D00070BD84F83850204600F022F8242084F8A8
:1017E00039002068C16821F40051C160204600F032
:1017F00039FC2068016921F4904101612068416948
:1018000021F02A0141612068C16841F40051C160A2
:10181000E563202084F8390084F83A00002070BD88
:10182000F0B587B0064614216846FEF713FD3F4920
:10183000DFF8F4C0376800253C481439022203233E
:101840000724674534D1076847F010070760006830
:1018500000F010000590086840F002000860086879
:10186000694600F002000590C0208DE82500CDE912
:1018700003342F48FFF764FB2F4C2E4820604FF0B5
:101880000060C4E901054014C4E90350801065619B
:10189000C4E906504FF44030C4E908052046FFF77C
:1018A0009BFA08B1FEF7F7FD7463A66307B0F0BDBD
:1018B000224EB74219D11D48001F066846F4003673
:1018C0000660006800F400300590086840F00800E9
:1018D00008600868694600F00800059060208DE8FF
:1018E0002500CDE9033416481BE0164CA742DDD194
:1018F000046844F020040460006800F020000590B3
:10190000086840F0400008600868694600F0400040
:1019100005904FF484408DE825000820CDE9033080
:101920000948FFF70DFBC1E70010014044380240B1
:10193000000402404064024068030020004400406C
:10194000000C02400014014000180240F8B50446A3
:1019500090F83A0020283CD1C1B3BAB394F83800CB
:10196000012836D0012084F83800A162A285002524
:10197000E563222084F83A00636B1748D863636BF1
:1019800016481864636B1648D864606B1346056587
:101990000846666B216802463046091DFFF786FA45
:1019A000206801684168009184F83850C16841F4AA
:1019B0008071C1602068416941F001014161206886
:1019C000416941F0400141610020F8BDFFE701207D
:1019D000FBE70220F9E70000EF1F00082B200008BA
:1019E000A51F000810B500680549884207D10549C0
:1019F000054800F043FABDE8104000F009BA10BDF8
:101A000000100140000100201601002070472DE960
:101A1000F843044690F839001F4616460D46202824
:101A200050D1B5B1AEB194F8380001284AD00120A8
:101A300084F838004FF00008C4F83C80212084F876
:101A40003900FFF76DFBA6848146E68484F8388070
:101A500026E00120BDE8F883E08C401EE084A06809
:101A60004B46B0F5805F4FF000024FF080012046FA
:101A7000009703D000F08AFBE8B90DE000F086FB88
:101A8000C8B928882168C0F308004860206908B1F7
:101A90006D1C05E0AD1C03E0216815F8010B4860E2
:101AA000E08C0028D8D14B460022402120460097E8
:101AB00000F06CFB08B10320CCE7202084F839004B
:101AC0000020C7E70220C5E7FEE70000104810B578
:101AD0000E4901600321416000214FF41022816012
:101AE000C0E903124FF400124261012202764176EE
:101AF0008176C17602774277FEF73DFF002803D05A
:101B0000BDE81040FEF7C7BC10BD000000640040F7
:101B1000580200200F4810B50D49016003214160B3
:101B200000214FF410228160C0E903124FF400122B
:101B30004261017641768176C17601774177FEF781
:101B40001AFF002803D0BDE81040FEF7A4BC10BD6A
:101B50000068004080020020094808B5016841F48F
:101B6000800101600068002200F4800000901146AE
:101B70003A20FFF743FBBDE808403A20FFF730BBAF
:101B80003038024030B587B014216846FEF762FB5A
:101B900021480024016841F040010160016801F022
:101BA00040010591016841F001010160016801F007
:101BB00001010591016841F002010160016801F035
:101BC00002010591016841F008010160016801F01E
:101BD00008010591016841F08001016000680F4D26
:101BE00000F08000059001223C212846FFF792FA80
:101BF0003C2000900120CDE9010469462846039469
:101C0000FFF79EF90420CDE90004694604480294D8
:101C1000FFF796F907B030BD30380240001C024093
:101C2000000402400D4810B50B4901600C494160A9
:101C300000214FF480628160C0E903120422C0E9F0
:101C40000521C161FFF7BBFD002803D0BDE81040AE
:101C5000FEF721BC10BD000000100140A8020020CA
:101C6000A08601000C4810B50A4901604FF4E1312B
:101C70004160002181600C22C160C0E904128161D1
:101C8000C161FFF79CFD002803D0BDE81040FEF7BE
:101C900002BC10BD00440040E80200200C4810B512
:101CA0000A4901604FF4E1314160002181600C225A
:101CB000C160C0E904128161C161FFF780FD0028A5
:101CC00003D0BDE81040FEF7E6BB10BD0014014094
:101CD00028030020FEE77047A0B1D0ED071AC0ED41
:101CE000081A90ED061A80ED071AC0ED040A80ED7F
:101CF000050A30EEC00A80ED060A017829B10129F3
:101D000031D064E09FED330A7047D0ED010A60EEF8
:101D1000801AC0ED091AD0ED0A0A90ED022A42EEAF
:101D2000000A30EE410AC0ED0A0A90ED031A20EED7
:101D3000011A80ED0B1A90ED0D0AF4EEC00AF1EED7
:101D400010FA09DCB1EE400AF4EEC00AF1EE10FA26
:101D500002D390ED0A0A01E080ED0A0A31EE800A12
:101D600030EE010A21E070EE410A90ED012AF0EE1A
:101D7000002A20EE822A80ED092AD0ED020A60EEC8
:101D8000800A01EE620AC0ED0A0A90ED031A72EEB3
:101D9000200A30EE210A20EE010A80ED0B0A30EE17
:101DA000800AD0ED0C0A30EE200A80ED0C0AD0ED4E
:101DB0000E0AB4EEE00AF1EE10FA06DCF1EE600A6B
:101DC000B4EEE00AF1EE10FA01D2C0ED0C0A90ED8B
:101DD0000C0A70470000000000280FD00170C0ED11
:101DE0000D0A80ED0E0A9FED060A80ED080A80EDCF
:101DF000070A80ED060A001D80EC031A70470000F8
:101E0000000000007047002801DC404200B270472B
:101E100070B5194CB4F90000FFF7F5FF4FF42F75BA
:101E2000A84217DCB4F90200FFF7EDFFA84211DC6D
:101E3000B4F90400FFF7E7FFA8420BDCB4F9060091
:101E4000FFF7E1FFA84205DC207A18B1607A08B1FB
:101E5000002070BD002020806080A080E0800221F2
:101E600021726172A081E0812082A074E074A0825E
:101E70006081012070BD0000000100200288C2F3D3
:101E80000A02A2F580620A8042788378D20842EA88
:101E90004312C2F30A02A2F580624A808278C378B4
:101EA000920942EA8302037942EA8322C2F30A02D8
:101EB000A2F580628A8002794379520842EAC3120D
:101EC000C2F30A02A2F58062CA804279C2F301120B
:101ED0004A72427992090A72C2888A810289CA8149
:101EE00042890A82027B8A74427BCA74C2898A82CE
:101EF000008AC0F30A00A0F58060488170477047EF
:101F0000FFF714B930B593B030216846FEF7A2F957
:101F100014210CA8FEF79EF919480025016841F02C
:101F200080510160006800F08050119015480168F0
:101F300041F4404101600068022400F440401190E7
:101F400001200090000401908001CDE906400620A8
:101F50000890A820CDE9090404200B906846FFF7FB
:101F60006BFA0CA90F2081E831004FF4A0500F90BC
:101F7000E002109005210CA8FFF772F913B030BDF4
:101F800040380240007000400548016841F470018B
:101F9000016003494FF0006080390860704700001D
:101FA00088ED00E070B5846B2068406994F83910C2
:101FB000C0F3C0100025212904D118B1E5842046C2
:101FC00000F046F82068406994F83A10C0F3801099
:101FD000222904D118B1E585204600F02BF8E06BEA
:101FE00040F01000E0632046FFF7E8FB70BD10B53D
:101FF0000146806B09680968C90513D40021C185B1
:102000000168CA6822F48072CA6001684A6922F0D5
:1020100001024A6101684A6922F040024A612021B6
:1020200080F83A10FFF7DEFC10BD10B5806BFFF7AB
:10203000EDFC10BD0168CA6822F49072CA600168A4
:102040004A6922F001024A61202180F83A10704763
:102050000168CA6822F0C002CA60202180F83910E5
:10206000704700002DE9F041044600680169E2680C
:1020700021F44051114301612169A068E2690843DC
:102080006169114308432168CA6849F20C639A43A5
:102090000243CA6020684169A26921F4407111437A
:1020A0004161E069192764253226B0F5004F354AB1
:1020B000354920684FF0000806D0884201D0904290
:1020C00036D1FFF777F935E0884201D0904202D14E
:1020D000FFF770F901E0FFF75DF961684A18A0FBAE
:1020E000070148EB0803FEF77DF80146B0FBF5F069
:1020F0000201B1FBF5F06FF01803584301EB8000CB
:1021000006EBC000B0FBF5F000F0F80002EB400277
:10211000B1FBF5F0584301EB800006EBC000B0FBCB
:10212000F5F000F00700216810448860BDE8F081F8
:10213000FFF730F961688B0F8A00A0FB0701FEF7FB
:1021400051F80146B0FBF5F06FF01802504301EB77
:10215000800006EB0010B0FBF5F000F0F002B1FBE0
:10216000F5F002EB0012B1FBF5F06FF018035843E5
:1021700001EB800006EB0010B0FBF5F000F00F0063
:10218000D1E7000000140140001001402DE9F041AA
:10219000984617460E460446069D1DE0681C1BD057
:1021A0002DB1FEF7BDFFA0EB0800A84214D92068AE
:1021B000C16821F4D071C1602068416921F001013A
:1021C0004161202084F8390084F83A00002084F826
:1021D00038000320BDE8F0812068006836EA00007E
:1021E00004D00020B842D9D00020F3E70120F9E75D
:1021F000FEE70907090E002804DB00F1E02080F863
:102200000014704700F00F0000F1E02080F8141D6A
:10221000704702E008C8121F08C1002AFAD17047AF
:102220007047002001E001C1121F002AFBD1704756
:1022300000F00300024900EB800001EB4000704712
:102240008E000020028802810A8852BA02804A88E1
:1022500052BA42808A8852BA8280897981717047E5
:1022600000487047000100200A8802804A884280A6
:102270008A888280C988C180704700002DED028B5A
:10228000FEF75CFFFFF73EFEFFF77CFCFFF764FC08
:10229000FFF71CFCFFF702FDFFF73CFCFFF7E2FC39
:1022A000FFF7C0FC434E424D0024A6F110089FEDFD
:1022B000428A05F1100700BF05EB8400B0EE480A22
:1022C00090ED002A06EB8400F0EE400AD0ED001AF3
:1022D00008EB8400002190ED001AC4EB041007EB1A
:1022E0008000FFF779FD641C042CE5DBFEF720F885
:1022F000122232493248FFF729FBDFF8C8802D4E01
:1023000008F11005203E00BFFFF7AAFF0024F0608F
:10231000E0B2FFF78DFF48F82400B0F90200D6EDD7
:10232000000A00EE100AC4EB041007EB8000B8EEC0
:10233000C00AF8EEE00AFFF7CFFC05EB8400641C4E
:1023400080ED000A042CE3DB95ED030ABDEEC00A24
:1023500010EE100A95ED020A03B2BDEEC00A10EEAF
:10236000100A95ED010A02B2BDEEC00A10EE100A85
:1023700095ED000A01B2BDEEC00A10EE100A00B2DF
:10238000FEF70CF80F4A0020F168203201EB400301
:102390001B8822F81030401C0428F7DB0948102164
:1023A000203000F011F80A20FEF7B8FDACE700007D
:1023B000280100204800002000A00C461601002043
:1023C000A8020020280200207CB504460DA00D467E
:1023D000006800900CA041F28836006801903346F6
:1023E000022269460948FFF712FBAAB2334621468A
:1023F0000648FFF70CFB3346022201A90348FFF70A
:1024000006FB7CBD03FC0000FC030000E80200208A
:102410000006101600061016000000000000000064
:10242000010203040607080900000000010203047A
:1024300050240008000000206C0000001222000858
:10244000BC2400086C0000205C0700002222000869
:10245000000000000000000000000000000000007C
:10246000000000000000000000000000000000006C
:10247000000000000000000000000000000000005C
:1024800001000000000000003D0AD73E0000803F30
:102490000000803F0000803F17B7D13B00000000E4
:1024A000000000000000000000000000010000002B
:0C24B00010000000000000000024F400F8
:04000005080001AD41
:00000001FF
